{
  "contractName": "Meme",
  "abi": [
    {
      "inputs": [],
      "stateMutability": "nonpayable",
      "type": "constructor"
    },
    {
      "inputs": [],
      "name": "memeHash",
      "outputs": [
        {
          "internalType": "string",
          "name": "",
          "type": "string"
        }
      ],
      "stateMutability": "view",
      "type": "function",
      "constant": true
    },
    {
      "inputs": [],
      "name": "owner",
      "outputs": [
        {
          "internalType": "address",
          "name": "",
          "type": "address"
        }
      ],
      "stateMutability": "view",
      "type": "function",
      "constant": true
    },
    {
      "inputs": [],
      "name": "readHash",
      "outputs": [
        {
          "internalType": "string",
          "name": "",
          "type": "string"
        }
      ],
      "stateMutability": "view",
      "type": "function",
      "constant": true
    },
    {
      "inputs": [
        {
          "internalType": "string",
          "name": "_hash",
          "type": "string"
        }
      ],
      "name": "writeHash",
      "outputs": [],
      "stateMutability": "nonpayable",
      "type": "function"
    }
  ],
  "bytecode": "0x608060405234801561001057600080fd5b5033600160006101000a81548173ffffffffffffffffffffffffffffffffffffffff021916908373ffffffffffffffffffffffffffffffffffffffff1602179055506106e5806100616000396000f3fe608060405234801561001057600080fd5b506004361061004c5760003560e01c80632233d627146100515780638da5cb5b1461006d578063d84b628a1461008b578063f0ff60cf146100a9575b600080fd5b61006b6004803603810190610066919061046e565b6100c7565b005b61007561012b565b60405161008291906104f8565b60405180910390f35b610093610151565b6040516100a0919061059b565b60405180910390f35b6100b16101df565b6040516100be919061059b565b60405180910390f35b60008190506003815111610110576040517f08c379a00000000000000000000000000000000000000000000000000000000081526004016101079061062f565b60405180910390fd5b8160009080519060200190610126929190610271565b505050565b600160009054906101000a900473ffffffffffffffffffffffffffffffffffffffff1681565b6000805461015e9061067e565b80601f016020809104026020016040519081016040528092919081815260200182805461018a9061067e565b80156101d75780601f106101ac576101008083540402835291602001916101d7565b820191906000526020600020905b8154815290600101906020018083116101ba57829003601f168201915b505050505081565b6060600080546101ee9061067e565b80601f016020809104026020016040519081016040528092919081815260200182805461021a9061067e565b80156102675780601f1061023c57610100808354040283529160200191610267565b820191906000526020600020905b81548152906001019060200180831161024a57829003601f168201915b5050505050905090565b82805461027d9061067e565b90600052602060002090601f01602090048101928261029f57600085556102e6565b82601f106102b857805160ff19168380011785556102e6565b828001600101855582156102e6579182015b828111156102e55782518255916020019190600101906102ca565b5b5090506102f391906102f7565b5090565b5b808211156103105760008160009055506001016102f8565b5090565b6000604051905090565b600080fd5b600080fd5b600080fd5b600080fd5b6000601f19601f8301169050919050565b7f4e487b7100000000000000000000000000000000000000000000000000000000600052604160045260246000fd5b61037b82610332565b810181811067ffffffffffffffff8211171561039a57610399610343565b5b80604052505050565b60006103ad610314565b90506103b98282610372565b919050565b600067ffffffffffffffff8211156103d9576103d8610343565b5b6103e282610332565b9050602081019050919050565b82818337600083830152505050565b600061041161040c846103be565b6103a3565b90508281526020810184848401111561042d5761042c61032d565b5b6104388482856103ef565b509392505050565b600082601f83011261045557610454610328565b5b81356104658482602086016103fe565b91505092915050565b6000602082840312156104845761048361031e565b5b600082013567ffffffffffffffff8111156104a2576104a1610323565b5b6104ae84828501610440565b91505092915050565b600073ffffffffffffffffffffffffffffffffffffffff82169050919050565b60006104e2826104b7565b9050919050565b6104f2816104d7565b82525050565b600060208201905061050d60008301846104e9565b92915050565b600081519050919050565b600082825260208201905092915050565b60005b8381101561054d578082015181840152602081019050610532565b8381111561055c576000848401525b50505050565b600061056d82610513565b610577818561051e565b935061058781856020860161052f565b61059081610332565b840191505092915050565b600060208201905081810360008301526105b58184610562565b905092915050565b7f73686f756c642068617665206120636f72726563742068617368206c656e677460008201527f6800000000000000000000000000000000000000000000000000000000000000602082015250565b600061061960218361051e565b9150610624826105bd565b604082019050919050565b600060208201905081810360008301526106488161060c565b9050919050565b7f4e487b7100000000000000000000000000000000000000000000000000000000600052602260045260246000fd5b6000600282049050600182168061069657607f821691505b6020821081036106a9576106a861064f565b5b5091905056fea2646970667358221220f728a255fa8f7f88c49bc68c86f918e61e81b968f20758587882b2c90519accb64736f6c634300080d0033",
  "immutableReferences": {},
  "source": "// SPDX-License-Identifier: MIT\npragma solidity >=0.4.22 <0.9.0;\n\ncontract Meme {\n  string public memeHash;\n  address public owner;\n\n\n  constructor() {\n    owner = msg.sender;\n  }\n\n  // GET\n  function readHash() public view returns (string memory) {\n    return memeHash;\n  }\n\n  // SET\n  function writeHash(string memory _hash) public {\n    bytes memory tempEmptyString = bytes(_hash);\n    require(tempEmptyString.length > 3, 'should have a correct hash length');\n    memeHash = _hash;\n  }\n}\n",
  "sourcePath": "/Users/danielancuta/Development/blockchain/truffle-react-ipfs-meme/src/contracts/Meme.sol",
  "compiler": {
    "name": "solc",
    "version": "0.8.13+commit.abaa5c0e.Emscripten.clang"
  },
  "schemaVersion": "3.4.7",
  "updatedAt": "2022-04-23T08:48:46.539Z",
  "networkType": "ethereum",
  "devdoc": {
    "kind": "dev",
    "methods": {},
    "version": 1
  },
  "userdoc": {
    "kind": "user",
    "methods": {},
    "version": 1
  }
}